:020000040800F2
:1000000000280020C5170008551700085B170008D6
:1000100061170008671700086D170008000000004E
:10002000000000000000000000000000731700083E
:100030007F170008000000008B17000897170008C2
:100040000D1800080D1800080D1800080D180008FC
:100050000D1800080D1800080D1800080D180008EC
:100060000D1800080D1800080D1800080D180008DC
:100070000D1800080D1800080D1800080D180008CC
:100080000D1800080D1800080D1800080D180008BC
:100090000D1800080D1800080D1800080D180008AC
:1000A0000D1800080D1800080D1800080D1800089C
:1000B000A51700080D180008000000000D18000822
:1000C0000D18000800000000000000000D180008D6
:1000D000000000000D1800080D18000800000000C6
:1000E0000D1800080D1800080D1800080000000089
:1000F0000000000000000000000000000000000000
:0C01000000000000000000005FF808F1A3
:10010C0010B5054C237833B9044B13B10448AFF345
:10011C0000800123237010BD34000020000000007B
:10012C005C2E000808B5034B1BB103490348AFF321
:10013C00008008BD00000000380000205C2E000884
:10014C0080B483B000AF7860044A7B68012142F828
:10015C00231000BF0C37BD4680BC70478C000020BC
:10016C0080B483B000AF7860094A7B6852F82330C2
:10017C00012B06D1064A7B68002142F8231001238B
:10018C0000E0002318460C37BD4680BC704700BF0A
:10019C008C00002080B582B000AF00237B6071E042
:1001AC003C4A7B6852F823203B497B6841F823206A
:1001BC003A4A7B6852F8232036497B6841F8232061
:1001CC00374A7B6852F8232036497B6831F8133064
:1001DC001946104601F002FE034619462F4A7B6869
:1001EC0042F823102B4A7B6852F823202A497B685B
:1001FC0051F823309A4242D1264A7B6852F8232088
:10020C0026497B6851F823309A4238D1264A7B68BC
:10021C0052F8232021497B6851F823309A4211D09F
:10022C001E4A7B6852F823201F497B6841F8232023
:10023C001A4A7B6852F82330002B20D17868FFF7DC
:10024C007FFF1CE0194A7B6852F823305A1E17496D
:10025C007B6841F82320154A7B6852F82330002B29
:10026C000DD1124A7B68C82142F823100B4A7B68D7
:10027C0052F82330002B02D17868FFF761FF7B68BE
:10028C0001337B607B68022B8ADD00BF00BF08371F
:10029C00BD4680BD5C00002050000020680000209E
:1002AC0008000020000000207400002080000020C6
:1002BC0080B485B000AFF860B9607A60FB680D4A15
:1002CC0082FB03129210DB17D21ABB681A60F96812
:1002DC00084B83FB01239A10CB17D21A13469B00B1
:1002EC0013445B00CA1A7B681A6000BF1437BD4602
:1002FC0080BC70476766666680B483B000AF786078
:10030C007B68022B16D1294B1B68294A82FB0312EE
:10031C005211DB17D31A013B264A1360264B1B687C
:10032C00234A82FB03125211DB17D31A013B234AD7
:10033C00136036E07B68032B0BD1214B1B681C4AE6
:10034C0082FB03125211DB17D31A013B1D4A1360B7
:10035C0027E07B68042B16D1174B1B68144A82FBD1
:10036C0003125211DB17D31A013B144A13600F4BC3
:10037C001B680F4A82FB03125211DB17D31A013B85
:10038C000C4A13600DE07B68052B0AD10C4B1B68E3
:10039C00074A82FB03125211DB17D31A013B094A9D
:1003AC00136000BF0C37BD4680BC7047980000201E
:1003BC001F85EB5114000020A00000201C00002021
:1003CC009C0000201800002080B500AF0C4B5B682F
:1003DC00012B12D10B4B1B68012B03D1094B0022B3
:1003EC001A6006E0074B1B68002B02D1054B01225B
:1003FC001A603221012001F0D7F800BF80BD00BF88
:10040C0000010020A400002080B582B000AF78600D
:10041C003960134B1B68002B0DD1002202211148AF
:10042C0001F0F3FC012204210E4801F0EEFC786887
:10043C0000F0A8FD10E00A4B1B68012B0CD1012227
:10044C000221084801F0E1FC00220421054801F0DA
:10045C00DCFC386800F096FD00BF0837BD4680BD57
:10046C00A40000200008014080B582B000AF786085
:10047C003960134B1B68002B0DD100220821114849
:10048C0001F0C3FC012210210E4801F0BEFC78687B
:10049C0000F0EAFB10E00A4B1B68012B0CD1012287
:1004AC000821084801F0B1FC00221021054801F098
:1004BC00ACFC386800F0D8FB00BF0837BD4680BDE7
:1004CC00A40000200008014080B584B000AF0023D8
:1004DC00FB600023BB6000237B6000233B60A54BCB
:1004EC001B68013B042B00F2418101A252F823F05E
:1004FC001105000841050008CF0500085D0600083D
:10050C00EB0600089B4B02221A600220FFF7F4FE58
:10051C00994B1B681946002001F046F83221012046
:10052C0001F042F86421022001F03EF8934B0022C6
:10053C001A601BE100F0C6FA00F01EFB904B1B6822
:10054C00012B0BD18B4B03221A608E4B1B68194667
:10055C00002001F029F80320FFF7CEFE8A4B1B6820
:10056C0007F1080207F10C011846FFF7A1FE874BB3
:10057C001B683A46391D1846FFF79AFEFB68BA68A5
:10058C0011461846FFF770FF7B683A68114618460B
:10059C00FFF73AFFFFF718FF794B9B68012B0DD142
:1005AC00794B1B68013B784A1360784B1B68013B05
:1005BC00764A13606421022000F0F6FF00F0EAF89E
:1005CC00D4E000F07FFA00F0EFFA6D4B1B68012BC2
:1005DC000BD1684B04221A60674B1B68194600202C
:1005EC0000F0E2FF0420FFF787FE674B1B6807F162
:1005FC00080207F10C011846FFF75AFE644B1B6802
:10060C003A46391D1846FFF753FEFB68BA68114687
:10061C001846FFF729FF7B683A6811461846FFF722
:10062C00F3FEFFF7D1FE564B9B68012B0DD1564BB9
:10063C001B68013B544A1360554B1B68013B544AE1
:10064C0013606421022000F0AFFF00F0A3F88DE0EE
:10065C0000F04EFA00F078FA494B1B68012B0BD1D5
:10066C00444B05221A60474B1B681946002000F0CA
:10067C009BFF0520FFF740FE444B1B6807F1080267
:10068C0007F10C011846FFF713FE3F4B1B683A4667
:10069C00391D1846FFF70CFEFB68BA681146184660
:1006AC00FFF7E2FE7B683A6811461846FFF7ACFE8E
:1006BC00FFF78AFE324B9B68012B0DD1334B1B6825
:1006CC00013B324A1360304B1B68013B2E4A1360CE
:1006DC006421022000F068FF00F05CF846E000F0B6
:1006EC001DFA00F031FA264B1B68012B0BD1214B64
:1006FC0002221A60234B1B681946002000F054FF9D
:10070C000220FFF7F9FD224B1B6807F1080207F1E5
:10071C000C011846FFF7CCFD1B4B1B683A46391DE4
:10072C001846FFF7C5FDFB68BA6811461846FFF777
:10073C009BFE7B683A6811461846FFF765FEFFF78B
:10074C0043FE0F4B9B68012B0DD1114B1B68013BDA
:10075C000F4A13600C4B1B68013B0B4A136064215E
:10076C00022000F021FF00F015F800BF00BF103789
:10077C00BD4680BD20000020A0000020A400002069
:10078C00000100209C000020140000201C00002010
:10079C001800002080B500AF0020FFF7E1FC0346F5
:1007AC00012B40D1214B01221A60214B01221A60EE
:1007BC00204B01221A6000F05DF9322000F012FF8C
:1007CC001D4B1B68022B03D01B4B1B68032B03D147
:1007DC00194B0C221A6026E0174B1B68042B03D113
:1007EC00154B0D221A601EE0134B1B68052B03D111
:1007FC00114B0E221A6016E00F4B1B680C2B03D109
:10080C000D4B0E221A600EE00B4B1B680E2B03D106
:10081C00094B0D221A6006E0074B1B680D2B02D109
:10082C00054B01221A6000BF80BD00BF14000020E0
:10083C00180000201C0000202000002080B500AF14
:10084C000120FFF78DFC0346012B31D1194B1B689E
:10085C000C2B0CD1184B1B680133174A1360164B29
:10086C001B68632B24DD144B00221A6020E0114B13
:10087C001B680E2B0CD1114B1B6801330F4A1360F4
:10088C000E4B1B68632B13DD0C4B00221A600FE020
:10089C00084B1B680D2B0BD1094B1B680133084A05
:1008AC001360074B1B68632B02DD054B00221A609B
:1008BC0000BF80BD20000020140000201800002084
:1008CC001C00002080B500AF0220FFF749FC034656
:1008DC00012B22D1124B1B680C2B07D1114B1B681F
:1008EC00642202FB03F3104A136016E00C4B1B68E6
:1008FC000E2B07D10D4B1B68642202FB03F30C4A31
:10090C0013600AE0064B1B680D2B06D1094B1B68C4
:10091C00642202FB03F3084A136000BF80BD00BFD2
:10092C002000002014000020980000201800002057
:10093C009C0000201C000020A000002080B582B08C
:10094C0000AF00237B6000233B60434B1B680E2BE6
:10095C0022D00E2B79DC0C2B02D00D2B38D074E06E
:10096C0000F03AF93D4B1B683A46391D1846FFF723
:10097C009FFC7B683A6811461846FFF775FD01210C
:10098C000020FFF741FDFFF71FFDFFF703FFFFF707
:10099C0055FFFFF797FF5BE000F04EF9304B1B68FB
:1009AC003A46391D1846FFF783FC7B683A681146B6
:1009BC001846FFF759FD02210020FFF725FDFFF730
:1009CC0003FDFFF7E7FEFFF739FFFFF77BFF3FE083
:1009DC0000F01AF9234B1B683A46391D1846FFF7ED
:1009EC0067FC7B683A6811461846FFF73DFD03210A
:1009FC000020FFF709FDFFF7E7FCFFF71FFFFFF7EC
:100A0C0061FFFFF7C7FE184B1A68184B1B681A4496
:100A1C00174B1B689A4207DA154B1A68124B1B6866
:100A2C00D31A124A136012E00F4B1A680F4B1B6853
:100A3C001A440F4B1B689A4209DD0B4B1A680B4B7F
:100A4C001B6813440A4A136001E000BF00E000BFBA
:100A5C0000BF0837BD4680BD2000002014000020D8
:100A6C00180000201C0000209C000020A00000208A
:100A7C009800002080B500AF00222021104801F022
:100A8C00C4F9002280210E4801F0BFF90022402158
:100A9C000B4801F0BAF900224FF48071084801F0BC
:100AAC00B4F900224FF48061054801F0AEF9002240
:100ABC004FF40071024801F0A8F900BF80BD00BFDF
:100ACC000008014080B500AF01222021074801F049
:100ADC009CF900228021054801F097F90022402161
:100AEC00024801F092F900BF80BD00BF0008014030
:100AFC0080B500AF00222021074801F086F90122C1
:100B0C008021054801F081F900224021024801F0C2
:100B1C007CF900BF80BD00BF0008014080B500AF6C
:100B2C0000222021074801F070F90022802105489D
:100B3C0001F06BF901224021024801F066F900BF77
:100B4C0080BD00BF0008014080B500AF01224FF40A
:100B5C008071084801F059F900224FF48061054872
:100B6C0001F053F900224FF40071024801F04DF9E5
:100B7C0000BF80BD0008014080B500AF00224FF4DB
:100B8C008071084801F041F901224FF48061054859
:100B9C0001F03BF900224FF40071024801F035F9E5
:100BAC0000BF80BD0008014080B500AF00224FF4AB
:100BBC008071084801F029F900224FF48061054842
:100BCC0001F023F901224FF40071024801F01DF9E4
:100BDC0000BF80BD0008014080B500AF084BDB684A
:100BEC00012B0BD1322000F0FDFC2021054801F037
:100BFC0024F94FF48071034801F01FF900BF80BD48
:100C0C00000100200008014080B500AF084BDB68F4
:100C1C00012B0BD1322000F0E5FC8021054801F0BE
:100C2C000CF94FF48061034801F007F900BF80BD57
:100C3C00000100200008014080B500AF084BDB68C4
:100C4C00012B0BD1322000F0CDFC4021054801F0E6
:100C5C00F4F84FF40071034801F0EFF800BF80BDC9
:100C6C00000100200008014080B582B000AF786020
:100C7C007B68092B00F2808101A252F823F000BF9F
:100C8C00B50C0008FD0C0008450D00088D0D000882
:100C9C00D50D00081D0E0008650E0008AD0E0008ED
:100CAC00F50E00083D0F000800220121B44801F0A8
:100CBC00ACF800220221B24801F0A7F8002204216E
:100CCC00AF4801F0A2F800220821AD4801F09DF8D0
:100CDC0000221021AA4801F098F800222021A848EF
:100CEC0001F093F801224021A54801F08EF843E170
:100CFC0001220121A24801F088F800220221A0481B
:100D0C0001F083F8002204219D4801F07EF80122B5
:100D1C0008219B4801F079F801221021984801F034
:100D2C0074F801222021964801F06FF8012240212D
:100D3C00934801F06AF81FE100220121904801F06C
:100D4C0064F8002202218E4801F05FF80122042190
:100D5C008B4801F05AF800220821894801F055F817
:100D6C0000221021864801F050F8012220218448ED
:100D7C0001F04BF800224021814801F046F8FBE0DD
:100D8C00002201217E4801F040F8002202217C481B
:100D9C0001F03BF800220421794801F036F80022DA
:100DAC000821774801F031F801221021744801F034
:100DBC002CF801222021724801F027F80022402152
:100DCC006F4801F022F8D7E0012201216C4801F0B4
:100DDC001CF8002202216A4801F017F800220421B5
:100DEC00674801F012F801220821654801F00DF85E
:100DFC0001221021624801F008F8002220216048ED
:100E0C0001F003F8002240215D4800F0FEFFB3E042
:100E1C00002201215A4800F0F8FF01220221584813
:100E2C0000F0F3FF00220421554800F0EEFF0022F1
:100E3C000821534800F0E9FF01221021504800F02E
:100E4C00E4FF002220214E4800F0DFFF0022402169
:100E5C004B4800F0DAFF8FE000220121484800F0F7
:100E6C00D4FF01220221464800F0CFFF00220421CA
:100E7C00434800F0CAFF00220821414800F0C5FF9A
:100E8C00002210213E4800F0C0FF002220213C48E7
:100E9C0000F0BBFF00224021394800F0B6FF6BE0A8
:100EAC0000220121364800F0B0FF00220221344814
:100EBC0000F0ABFF00220421314800F0A6FF012214
:100ECC0008212F4800F0A1FF012210212C4800F02E
:100EDC009CFF012220212A4800F097FF012240218B
:100EEC00274800F092FF47E000220121244800F03F
:100EFC008CFF00220221224800F087FF00220421EF
:100F0C001F4800F082FF002208211D4800F07DFFE1
:100F1C00002210211A4800F078FF002220211848E6
:100F2C0000F073FF00224021154800F06EFF23E013
:100F3C0000220121124800F068FF00220221104813
:100F4C0000F063FF002204210D4800F05EFF002238
:100F5C0008210B4800F059FF01221021084800F02D
:100F6C0054FF00222021064800F04FFF00224021B0
:100F7C00034800F04AFF00BF00BF0837BD4680BDE4
:100F8C00000C014080B582B000AF78607B68092B03
:100F9C0000F2C98101A252F823F000BFD10F000862
:100FAC00271000087D100008D31000082911000834
:100FBC007F110008D51100082B12000881120008BF
:100FCC00DD12000800224FF48071C04800F01DFFB4
:100FDC0000224FF40071BD4800F017FF00224FF4BF
:100FEC008061BA4800F011FF00224FF40061B7484D
:100FFC0000F00BFF00224FF48051B44800F005FFC5
:10100C0000224FF40051B14800F0FFFE01224FF4D2
:10101C008041AE4800F0F9FE85E101224FF4807169
:10102C00AA4800F0F2FE00224FF40071A74800F02D
:10103C00ECFE00224FF48061A44800F0E6FE012291
:10104C004FF40061A14800F0E0FE01224FF4805102
:10105C009E4800F0DAFE01224FF400519B4800F04C
:10106C00D4FE01224FF48041984800F0CEFE5AE1A4
:10107C0000224FF48071954800F0C7FE00224FF417
:10108C000071924800F0C1FE01224FF480618F483C
:10109C0000F0BBFE00224FF400618C4800F0B5FE5E
:1010AC0000224FF48051894800F0AFFE01224FF42A
:1010BC000051864800F0A9FE00224FF4804183487D
:1010CC0000F0A3FE2FE100224FF480717F4800F066
:1010DC009CFE00224FF400717C4800F096FE00222A
:1010EC004FF48061794800F090FE00224FF40061CB
:1010FC00764800F08AFE01224FF48051734800F0CC
:10110C0084FE01224FF40051704800F07EFE002254
:10111C004FF480416D4800F078FE04E101224FF459
:10112C0080716A4800F071FE00224FF4007167482C
:10113C0000F06BFE00224FF48061644800F065FE05
:10114C0001224FF40061614800F05FFE01224FF470
:10115C0080515E4800F059FE00224FF400515B486C
:10116C0000F053FE00224FF48041584800F04DFE31
:10117C00D9E000224FF48071544800F046FE012261
:10118C004FF40071514800F040FE00224FF4806192
:10119C004E4800F03AFE00224FF400614B4800F03C
:1011AC0034FE01224FF48051484800F02EFE0022FC
:1011BC004FF40051454800F028FE00224FF48041C6
:1011CC00424800F022FEAEE000224FF480713F480E
:1011DC0000F01BFE01224FF400713C4800F015FE9C
:1011EC0000224FF48061394800F00FFE00224FF4CA
:1011FC000061364800F009FE00224FF4805133485C
:10120C0000F003FE00224FF40051304800F0FDFDC9
:10121C0000224FF480412D4800F0F7FD83E00022BE
:10122C004FF48071294800F0F0FD00224FF400715A
:10123C00264800F0EAFD00224FF48061234800F0BC
:10124C00E4FD01224FF40061204800F0DEFD012294
:10125C004FF480511D4800F0D8FD01224FF400518D
:10126C001A4800F0D2FD01224FF48041174800F0DB
:10127C00CCFD58E000224FF48071144800F0C5FDFD
:10128C0000224FF40071114800F0BFFD00224FF412
:10129C0080610E4800F0B9FD00224FF400610B484C
:1012AC0000F0B3FD00224FF48051084800F0ADFD72
:1012BC0000224FF40051054800F0A7FD00224FF426
:1012CC008041024800F0A1FD2DE000BF000C014060
:1012DC0000224FF48071164800F097FD00224FF465
:1012EC000071134800F091FD00224FF4806110480A
:1012FC0000F08BFD00224FF400610D4800F085FDDD
:10130C0001224FF480510A4800F07FFD00224FF477
:10131C000051074800F079FD00224FF48041044849
:10132C0000F073FD00BF00BF0837BD4680BD00BF95
:10133C00000C014080B500AF00F064FA00F020F81A
:10134C0000F0A6F800F058F8094801F0BDF9094B77
:10135C004FF4FA721A60084BC8221A60074B4FF40C
:10136C0096721A60FFF7B0F8FFF7E8FAFAE700BFD9
:10137C00A8000020980000209C000020A000002065
:10138C0080B590B000AF07F1180328220021184651
:10139C0001F032FD3B1D00221A605A609A60DA603F
:1013AC001A610223BB610123BB621023FB62002381
:1013BC007B6307F11803184600F058FD0346002B19
:1013CC0001D000F0ECF80F237B600023BB600023FE
:1013DC00FB6000233B6100237B613B1D0021184611
:1013EC0000F0C6FF0346002B01D000F0D8F800BF78
:1013FC004037BD4680BD000080B586B000AF07F118
:10140C00080300221A605A609A60DA603B46002298
:10141C001A605A601D4B4FF080421A601B4B41F60C
:10142C003F725A60194B00229A60184B0922DA60FD
:10143C00164B00221A61154B00229A61134801F0D9
:10144C00F3F80346002B01D000F0A9F84FF48053B9
:10145C00BB6007F1080319460C4801F089FA0346F2
:10146C00002B01D000F09BF800233B6000237B6035
:10147C003B461946054801F055FC0346002B01D0AC
:10148C0000F08DF800BF1837BD4680BDA8000020C5
:10149C0080B588B000AF07F1100300221A605A60C3
:1014AC009A60DA602F4B9B692E4A43F010039361CC
:1014BC002C4B9B6903F01003FB60FB68294B9B6969
:1014CC00284A43F004039361264B9B6903F0040301
:1014DC00BB60BB68234B9B69224A43F008039361B2
:1014EC00204B9B6903F008037B607B68002240F271
:1014FC00FE711D4800F089FC002247F67F711B48E5
:10150C0000F083FC4FF460433B6100237B610123BB
:10151C00BB6107F110031946154800F0E3FA40F2DD
:10152C00FE733B6101237B610023BB610223FB61E2
:10153C0007F1100319460C4800F0D4FA47F67F73F4
:10154C003B6101237B610023BB610223FB6107F13B
:10155C0010031946054800F0C5FA00BF2037BD46F8
:10156C0080BD00BF0010024000080140000C01408B
:10157C000010014080B582B000AF7860002000F010
:10158C004BF8012000F048F8022000F045F800F07C
:10159C006BF8FEF7FFFD00BF0837BD4680BD80B479
:1015AC0000AF72B600BFFEE780B483B000AF7860C6
:1015BC003960094B1B683A6892FBF3F207497B6868
:1015CC0041F82320064A7B68002142F8231000BF13
:1015DC000C37BD4680BC704724000020F40000206E
:1015EC000001002080B483B000AF7860074B1B680B
:1015FC007A6892FBF3F3064A1360064B00221A60DA
:10160C0000BF0C37BD4680BC704700BF24000020D3
:10161C00F00000200C01002080B483B000AF786093
:10162C000F4A7B6852F82330002B13DD0C4A7B6881
:10163C0052F823305A1E0A497B6841F82320084A85
:10164C007B6852F82330002B04DC064A7B680121AE
:10165C0042F8231000BF0C37BD4680BC704700BF5A
:10166C00F40000200001002080B400AF094B1B687F
:10167C00002B0BDD074B1B68013B064A1360054B27
:10168C001B68002B02DC044B01221A6000BFBD4614
:10169C0080BC7047F00000200C01002080B485B0A5
:1016AC0000AF154B9B69144A43F001039361124B35
:1016BC009B6903F00103BB60BB680F4BDB690E4AEF
:1016CC0043F08053D3610C4BDB6903F080537B6098
:1016DC007B680A4B5B68FB60FB6823F0E063FB6094
:1016EC00FB6843F00073FB60044AFB68536000BF67
:1016FC001437BD4680BC704700100240000001400A
:10170C0080B584B000AF78607B681B68B3F1804F04
:10171C0013D10C4BDB690B4A43F00103D361094B2A
:10172C00DB6903F00103FB60FB68002200211C2035
:10173C0000F0A1F91C2000F0BAF900BF1037BD462B
:10174C0080BD00BF0010024080B400AFFEE780B443
:10175C0000AFFEE780B400AFFEE780B400AFFEE759
:10176C0080B400AFFEE780B400AF00BFBD4680BCC4
:10177C00704780B400AF00BFBD4680BC704780B4DA
:10178C0000AF00BFBD4680BC704780B500AF00F015
:10179C007FF800BF80BD000080B500AF024800F0AC
:1017AC00DFFF00BF80BD00BFA800002080B400AFE9
:1017BC0000BFBD4680BC7047FFF7F8FF0B480C49D3
:1017CC000C4A002302E0D458C4500433C4188C4291
:1017DC00F9D3094A094C002301E013600432A242F8
:1017EC00FBD301F011FBFFF7A5FD704700000020B3
:1017FC0034000020A02E000834000020140100202A
:10180C00FEE7000080B500AF084B1B68074A43F0A9
:10181C0010031360032000F023F90F2000F008F8E8
:10182C00FFF73CFF0023184680BD00BF002002409C
:10183C0080B582B000AF7860124B1A68124B1B78DF
:10184C0019464FF47A73B3FBF1F3B2FBF3F318467A
:10185C0000F03BF90346002B01D001230EE07B681E
:10186C000F2B0AD8002279684FF0FF3000F003F9F3
:10187C00064A7B681360002300E0012318460837F2
:10188C00BD4680BD28000020300000202C00002028
:10189C0080B400AF054B1B781A46054B1B681344EC
:1018AC00034A136000BFBD4680BC70473000002067
:1018BC001001002080B400AF024B1B681846BD46D7
:1018CC0080BC70471001002080B485B000AF7860F8
:1018DC007B6803F00703FB600C4BDB68BB60BA68EA
:1018EC004FF6FF031340BB60FB681A02BB6813433F
:1018FC0043F0BF6343F40033BB60044ABB68D3605E
:10190C0000BF1437BD4680BC704700BF00ED00E03F
:10191C0080B400AF044BDB681B0A03F007031846C6
:10192C00BD4680BC704700BF00ED00E080B483B0C2
:10193C0000AF0346FB7197F90730002B0BDBFB79EB
:10194C0003F01F02064997F907305B09012000FAE2
:10195C0002F241F8232000BF0C37BD4680BC704713
:10196C0000E100E080B483B000AF03463960FB7146
:10197C0097F90730002B0ADB3B68DAB20C4997F970
:10198C0007301201D2B20B4483F800230AE03B6803
:10199C00DAB20849FB7903F00F03043B1201D2B20F
:1019AC000B441A7600BF0C37BD4680BC704700BF95
:1019BC0000E100E000ED00E080B489B000AFF86019
:1019CC00B9607A60FB6803F00703FB61FB69C3F144
:1019DC000703042B28BF0423BB61FB690433062BCC
:1019EC0002D9FB69033B00E000237B614FF0FF321F
:1019FC00BB6902FA03F3DA43BB681A407B699A406D
:101A0C004FF0FF317B6901FA03F3D9437B680B403C
:101A1C00134318462437BD4680BC704780B582B04E
:101A2C0000AF78607B68013BB3F1807F01D3012369
:101A3C000FE00A4A7B68013B53600F214FF0FF30E7
:101A4C00FFF790FF054B00229A60044B07221A60A7
:101A5C00002318460837BD4680BD00BF10E000E0EB
:101A6C0080B582B000AF78607868FFF72DFF00BFBB
:101A7C000837BD4680BD80B586B000AF0346B9605F
:101A8C007A60FB7300237B61FFF742FF78617A6811
:101A9C00B9687869FFF790FF024697F90F30114645
:101AAC001846FFF75FFF00BF1837BD4680BD80B5F5
:101ABC0082B000AF0346FB7197F907301846FFF769
:101ACC0035FF00BF0837BD4680BD80B582B000AF82
:101ADC0078607868FFF7A2FF034618460837BD46C2
:101AEC0080BD000080B48BB000AF786039600023FB
:101AFC007B6200233B6261E101227B6A02FA03F301
:101B0C00FB613B681B68FA691340BB61BA69FB69EE
:101B1C009A4240F050813B685B68974A93425ED092
:101B2C00954A934275D8954A934258D0934A93421A
:101B3C006FD8934A934252D0914A934269D8914AB2
:101B4C0093424CD08F4A934263D88F4A934246D0EB
:101B5C008D4A93425DD8122B2AD8122B59D801A248
:101B6C0052F823F0EB1B0008C51B0008D71B00081C
:101B7C00191C00081F1C00081F1C00081F1C000853
:101B8C001F1C00081F1C00081F1C00081F1C00083D
:101B9C001F1C00081F1C00081F1C00081F1C00082D
:101BAC001F1C00081F1C0008CD1B0008E11B0008AF
:101BBC00764A934213D02CE03B68DB683B6229E009
:101BCC003B68DB6804333B6224E03B68DB6808332A
:101BDC003B621FE03B68DB680C333B621AE03B68FE
:101BEC009B68002B02D104233B6213E03B689B688B
:101BFC00012B05D108233B627B68FA691A6109E065
:101C0C0008233B627B68FA695A6103E000233B625C
:101C1C0000E000BFBB69FF2B01D87B6801E07B684B
:101C2C0004337B61BB69FF2B02D87B6A9B0002E00B
:101C3C007B6A083B9B003B617B691A680F213B69FF
:101C4C0001FA03F3DB431A40396A3B6901FA03F3E7
:101C5C001A437B691A603B685B6803F08053002B66
:101C6C0000F0A9804A4B9B69494A43F001039361F8
:101C7C00474B9B6903F00103BB60BB68454A7B6A19
:101C8C009B08023352F82330FB607B6A03F003039A
:101C9C009B000F2202FA03F3DB43FA681340FB604C
:101CAC007B683D4A93420DD07B683C4A934207D0F7
:101CBC007B683B4A934201D1022304E0032302E0F8
:101CCC00012300E000237A6A02F0030292009340A1
:101CDC00FA681343FB602F497B6A9B080233FA684E
:101CEC0041F823203B685B6803F48013002B06D07B
:101CFC002C4B9A682B49BB6913438B6006E0294B2C
:101D0C009A68BB69DB43274913408B603B685B686F
:101D1C0003F40013002B06D0224BDA682149BB696F
:101D2C001343CB6006E01F4BDA68BB69DB431D49EC
:101D3C001340CB603B685B6803F40033002B06D088
:101D4C00184B5A681749BB6913434B6006E0154B97
:101D5C005A68BB69DB43134913404B603B685B68B3
:101D6C0003F48033002B1FD00E4B1A680D49BB694E
:101D7C0013430B601FE000BF000032100000311055
:101D8C0000002210000021100000121000001110A1
:101D9C00001002400000014000080140000C01400E
:101DAC0000100140000401400B4B1A68BB69DB4377
:101DBC00094913400B607B6A01337B623B681A68EC
:101DCC007B6A22FA03F3002B7FF496AE00BF00BFB0
:101DDC002C37BD4680BC70470004014080B485B0F0
:101DEC0000AF78600B467B807B689A687B881340D9
:101DFC00002B02D00123FB7301E00023FB73FB7B60
:101E0C0018461437BD4680BC704780B483B000AF11
:101E1C0078600B467B8013467B707B78002B03D05D
:101E2C007A887B681A6103E07B881A047B681A61E4
:101E3C0000BF0C37BD4680BC704780B485B000AF86
:101E4C0078600B467B807B68DB68FB607A88FB687C
:101E5C0013401A04FB68D9437B880B401A437B68F8
:101E6C001A6100BF1437BD4680BC704780B586B080
:101E7C0000AF78607B68002B01D1012372E27B6894
:101E8C001B6803F00103002B00F08780924B5B680A
:101E9C0003F00C03042B0CD08F4B5B6803F00C038A
:101EAC00082B12D18C4B5B6803F48033B3F5803F65
:101EBC000BD1894B1B6803F40033002B6CD07B686F
:101ECC005B68002B68D101234CE27B685B68B3F53F
:101EDC00803F06D1804B1B687F4A43F480331360EC
:101EEC002EE07B685B68002B0CD17B4B1B687A4A1D
:101EFC0023F480331360784B1B68774A23F48023D8
:101F0C0013601DE07B685B68B3F5A02F0CD1724B9E
:101F1C001B68714A43F4802313606F4B1B686E4A35
:101F2C0043F4803313600BE06B4B1B686A4A23F459
:101F3C0080331360684B1B68674A23F4802313605B
:101F4C007B685B68002B13D0FFF7B4FC386108E0AA
:101F5C00FFF7B0FC02463B69D31A642B01D903236B
:101F6C0000E25D4B1B6803F40033002BF0D014E04F
:101F7C00FFF7A0FC386108E0FFF79CFC02463B69C8
:101F8C00D31A642B01D90323ECE1534B1B6803F4E4
:101F9C000033002BF0D100E000BF7B681B6803F01E
:101FAC000203002B63D04C4B5B6803F00C03002B3B
:101FBC000BD0494B5B6803F00C03082B1CD1464B30
:101FCC005B6803F48033002B16D1434B1B6803F082
:101FDC000203002B05D07B681B69012B01D0012368
:101FEC00C0E13D4B1B6823F0F8027B685B69DB00AA
:101FFC00394913430B603AE07B681B69002B20D0F6
:10200C00364B01221A60FFF755FC386108E0FFF7E8
:10201C0051FC02463B69D31A022B01D90323A1E1DF
:10202C002D4B1B6803F00203002BF0D02A4B1B68CE
:10203C0023F0F8027B685B69DB00274913430B60D4
:10204C0015E0264B00221A60FFF734FC386108E0DB
:10205C00FFF730FC02463B69D31A022B01D903234C
:10206C0080E11D4B1B6803F00203002BF0D17B6851
:10207C001B6803F00803002B3AD07B689B69002B8C
:10208C0019D0174B01221A60FFF714FC386108E0D5
:10209C00FFF710FC02463B69D31A022B01D903232C
:1020AC0060E10D4B5B6A03F00203002BF0D00120C2
:1020BC0000F09CFA1CE00A4B00221A60FFF7FAFBB6
:1020CC0038610FE0FFF7F6FB02463B69D31A022B8F
:1020DC0008D9032346E100BF001002400000424231
:1020EC0080044242924B5B6A03F00203002BE9D15D
:1020FC007B681B6803F00403002B00F0A680002310
:10210C00FB758B4BDB6903F08053002B0DD1884B97
:10211C00DB69874A43F08053D361854BDB6903F05D
:10212C008053BB60BB680123FB75824B1B6803F4B7
:10213C008073002B18D17F4B1B687E4A43F480734D
:10214C001360FFF7B7FB386108E0FFF7B3FB0246FB
:10215C003B69D31A642B01D9032303E1754B1B682C
:10216C0003F48073002BF0D07B68DB68012B06D165
:10217C006F4B1B6A6E4A43F0010313622DE07B68C0
:10218C00DB68002B0CD16A4B1B6A694A23F00103F4
:10219C001362674B1B6A664A23F0040313621CE04C
:1021AC007B68DB68052B0CD1614B1B6A604A43F0E2
:1021BC00040313625E4B1B6A5D4A43F00103136216
:1021CC000BE05B4B1B6A5A4A23F001031362584B1A
:1021DC001B6A574A23F0040313627B68DB68002BED
:1021EC0015D0FFF767FB38610AE0FFF763FB024687
:1021FC003B69D31A41F28832934201D90323B1E0EF
:10220C004B4B1B6A03F00203002BEED014E0FFF7DC
:10221C0051FB38610AE0FFF74DFB02463B69D31ACC
:10222C0041F28832934201D903239BE0404B1B6A55
:10223C0003F00203002BEED1FB7D012B05D13C4BAF
:10224C00DB693B4A23F08053D3617B68DB69002B4D
:10225C0000F08780364B5B6803F00C03082B61D0D1
:10226C007B68DB69022B46D1334B00221A60FFF7E7
:10227C0021FB386108E0FFF71DFB02463B69D31ACE
:10228C00022B01D903236DE0294B1B6803F000736B
:10229C00002BF0D17B681B6AB3F5803F08D1244B2F
:1022AC005B6823F400327B689B68214913434B60C5
:1022BC001F4B5B6823F474127B68196A7B685B6A3A
:1022CC000B431B4913434B601B4B01221A60FFF756
:1022DC00F1FA386108E0FFF7EDFA02463B69D31AD0
:1022EC00022B01D903233DE0114B1B6803F0007353
:1022FC00002BF0D035E0104B00221A60FFF7DAFA11
:10230C00386108E0FFF7D6FA02463B69D31A022B74
:10231C0001D9032326E0064B1B6803F00073002B46
:10232C00F0D11EE07B68DB69012B07D1012319E09A
:10233C000010024000700040600042420B4B5B6892
:10234C00FB60FB6803F480327B681B6A9A4206D1FF
:10235C00FB6803F470127B685B6A9A4201D001231C
:10236C0000E0002318461837BD4680BD001002401F
:10237C0080B584B000AF786039607B68002B01D1E8
:10238C000123D0E06A4B1B6803F007033A689A42BA
:10239C0010D9674B1B6823F0070265493B68134350
:1023AC000B60634B1B6803F007033A689A4201D039
:1023BC000123B8E07B681B6803F00203002B20D0DC
:1023CC007B681B6803F00403002B05D0594B5B683A
:1023DC00584A43F4E06353607B681B6803F00803BE
:1023EC00002B05D0534B5B68524A43F46053536047
:1023FC00504B5B6823F0F0027B689B684D4913439C
:10240C004B607B681B6803F00103002B40D07B689A
:10241C005B68012B07D1474B1B6803F40033002B7F
:10242C0015D101237FE07B685B68022B07D1414B00
:10243C001B6803F00073002B09D1012373E03D4BA3
:10244C001B6803F00203002B01D101236BE0394B15
:10245C005B6823F003027B685B68364913434B606F
:10246C00FFF728FAF8600AE0FFF724FA0246FB6847
:10247C00D31A41F28832934201D9032353E02D4BF6
:10248C005B6803F00C027B685B689B009A42EBD1A3
:10249C00274B1B6803F007033A689A4210D2244B6F
:1024AC001B6823F0070222493B6813430B60204B47
:1024BC001B6803F007033A689A4201D0012332E00B
:1024CC007B681B6803F00403002B08D0194B5B6876
:1024DC0023F4E0627B68DB68164913434B607B682E
:1024EC001B6803F00803002B09D0124B5B6823F424
:1024FC0060527B681B69DB000E4913434B6000F094
:10250C0021F802460B4B5B681B0903F00F030A49C9
:10251C00CB5C22FA03F3094A1360094B1B6818467B
:10252C00FFF786F9002318461037BD4680BD00BF63
:10253C000020024000100240742E000828000020E9
:10254C002C00002080B487B000AF0023FB60002378
:10255C00BB6000237B6100237B6000233B611E4B2F
:10256C005B68FB60FB6803F00C03042B02D0082BA8
:10257C0003D027E0194B3B6127E0FB689B0C03F071
:10258C000F03174AD35C7B60FB6803F48033002B8A
:10259C0010D0114B5B685B0C03F00103114AD35C48
:1025AC00BB607B680D4A03FB02F2BB68B2FBF3F322
:1025BC007B6104E07B680C4A02FB03F37B617B6963
:1025CC003B6102E0054B3B6100BF3B6918461C3781
:1025DC00BD4680BC704700BF0010024000127A005C
:1025EC00842E0008942E000800093D0080B485B0AC
:1025FC0000AF78600A4B1B680A4AA2FB03235B0AF4
:10260C007A6802FB03F3FB6000BFFB685A1EFA609A
:10261C00002BF9D100BF00BF1437BD4680BC7047FA
:10262C0028000020D34D621080B582B000AF7860D6
:10263C007B68002B01D1012341E07B6893F83D308E
:10264C00DBB2002B06D17B68002283F83C20786833
:10265C00FFF756F87B68022283F83D207B681A68E6
:10266C007B6804331946104600F06EFA7B68012231
:10267C0083F846207B68012283F83E207B68012288
:10268C0083F83F207B68012283F840207B6801227D
:10269C0083F841207B68012283F842207B68012269
:1026AC0083F843207B68012283F844207B68012255
:1026BC0083F845207B68012283F83D2000231846CF
:1026CC000837BD4680BD000080B485B000AF78608F
:1026DC007B6893F83D30DBB2012B01D0012335E050
:1026EC007B68022283F83D207B681B68DA687B6874
:1026FC001B6842F00102DA607B681B68164A934241
:10270C0009D07B681B68B3F1804F04D07B681B68D1
:10271C00124A934211D17B681B689B6803F0070334
:10272C00FB60FB68062B10D07B681B681A687B6803
:10273C001B6842F001021A6007E07B681B681A688C
:10274C007B681B6842F001021A600023184614379C
:10275C00BD4680BC704700BF002C01400004004007
:10276C0080B582B000AF78607B681B681B6903F092
:10277C000203022B22D17B681B68DB6803F0020387
:10278C00022B1BD17B681B686FF002021A617B68FD
:10279C0001221A777B681B689B6903F00303002BEB
:1027AC0003D0786800F0B4F905E0786800F0A7F978
:1027BC00786800F0B6F97B6800221A777B681B6892
:1027CC001B6903F00403042B22D17B681B68DB68B4
:1027DC0003F00403042B1BD17B681B686FF004020D
:1027EC001A617B6802221A777B681B689B6903F469
:1027FC004073002B03D0786800F08AF905E0786804
:10280C0000F07DF9786800F08CF97B6800221A776B
:10281C007B681B681B6903F00803082B22D17B68BB
:10282C001B68DB6803F00803082B1BD17B681B6853
:10283C006FF008021A617B6804221A777B681B68A8
:10284C00DB6903F00303002B03D0786800F060F918
:10285C0005E0786800F053F9786800F062F97B685D
:10286C0000221A777B681B681B6903F01003102B7E
:10287C0022D17B681B68DB6803F01003102B1BD183
:10288C007B681B686FF010021A617B6808221A774C
:10289C007B681B68DB6903F44073002B03D07868FA
:1028AC0000F036F905E0786800F029F9786800F056
:1028BC0038F97B6800221A777B681B681B6903F068
:1028CC000103012B0ED17B681B68DB6803F001034D
:1028DC00012B07D17B681B686FF001021A617868C5
:1028EC00FEF748FE7B681B681B6903F08003802B96
:1028FC000ED17B681B68DB6803F08003802B07D14B
:10290C007B681B686FF080021A61786800F06BFAC4
:10291C007B681B681B6903F04003402B0ED17B685E
:10292C001B68DB6803F04003402B07D17B681B68F6
:10293C006FF040021A61786800F0FCF87B681B6845
:10294C001B6903F02003202B0ED17B681B68DB680E
:10295C0003F02003202B07D17B681B686FF020024B
:10296C001A61786800F036FA00BF0837BD4680BDA2
:10297C0080B584B000AF786039600023FB737B684E
:10298C0093F83C30012B01D10223B4E07B68012287
:10299C0083F83C207B68022283F83D207B681B680F
:1029AC009B68BB60BB6823F07703BB60BB6823F4F8
:1029BC007F43BB607B681B68BA689A603B681B6886
:1029CC00B3F5005F3ED0B3F5005F00F28780B3F53E
:1029DC00805F00F08680B3F5805F7FD8702B1AD0B3
:1029EC00702B7BD8602B50D0602B77D8502B3CD0E1
:1029FC00502B73D8402B58D0402B6FD8302B64D031
:102A0C00302B6BD8202B60D0202B67D8002B5CD0C0
:102A1C00102B5AD062E07B6818683B6899683B6859
:102A2C005A683B68DB6800F05EF97B681B689B6842
:102A3C00BB60BB6843F07703BB607B681B68BA68FC
:102A4C009A604FE07B6818683B6899683B685A68E5
:102A5C003B68DB6800F047F97B681B689A687B6809
:102A6C001B6842F480429A603CE07B6818683B68C3
:102A7C0059683B68DB681A4600F0BEF87B681B6837
:102A8C005021184600F015F92CE07B6818683B685B
:102A9C0059683B68DB681A4600F0DCF87B681B68F9
:102AAC006021184600F005F91CE07B6818683B684B
:102ABC0059683B68DB681A4600F09EF87B681B6817
:102ACC004021184600F0F5F80CE07B681A683B686A
:102ADC001B681946104600F0ECF803E00123FB7369
:102AEC0000E000BF7B68012283F83D207B68002258
:102AFC0083F83C20FB7B18461037BD4680BD80B464
:102B0C0083B000AF786000BF0C37BD4680BC704707
:102B1C0080B483B000AF786000BF0C37BD4680BC7A
:102B2C00704780B483B000AF786000BF0C37BD46EF
:102B3C0080BC704780B483B000AF786000BF0C37A6
:102B4C00BD4680BC7047000080B485B000AF786093
:102B5C0039607B681B68FB607B68254A934207D011
:102B6C007B68B3F1804F03D07B68224A934208D133
:102B7C00FB6823F07003FB603B685B68FA681343E7
:102B8C00FB607B681A4A934207D07B68B3F1804F95
:102B9C0003D07B68174A934208D1FB6823F4407337
:102BAC00FB603B68DB68FA681343FB60FB6823F04F
:102BBC0080023B685B691343FB607B68FA681A60B0
:102BCC003B689A687B68DA623B681A687B689A6231
:102BDC007B68074A934203D13B681A697B681A6386
:102BEC007B6801225A6100BF1437BD4680BC704718
:102BFC00002C01400004004080B487B000AFF860A6
:102C0C00B9607A60FB681B6A7B61FB681B6A23F006
:102C1C000102FB681A62FB689B693B613B6923F00C
:102C2C00F0033B617B681B013A6913433B617B6991
:102C3C0023F00A037B617A69BB6813437B61FB68F1
:102C4C003A699A61FB687A691A6200BF1C37BD4603
:102C5C0080BC704780B487B000AFF860B9607A6010
:102C6C00FB681B6A7B61FB681B6A23F01002FB6824
:102C7C001A62FB689B693B613B6923F470433B61BF
:102C8C007B681B033A6913433B617B6923F0A00308
:102C9C007B61BB681B017A6913437B61FB683A69F2
:102CAC009A61FB687A691A6200BF1C37BD4680BC0A
:102CBC00704780B485B000AF786039607B689B68E2
:102CCC00FB60FB6823F07003FB603A68FB681343FE
:102CDC0043F00703FB607B68FA689A6000BF143707
:102CEC00BD4680BC704780B487B000AFF860B96057
:102CFC007A603B60FB689B687B617B6923F47F4354
:102D0C007B613B681A027B681A43BB6813437A6980
:102D1C0013437B61FB687A699A6000BF1C37BD4620
:102D2C0080BC704780B485B000AF786039607B6838
:102D3C0093F83C30012B01D1022341E07B68012246
:102D4C0083F83C207B68022283F83D207B681B685B
:102D5C005B68FB607B681B689B68BB60FB6823F04F
:102D6C007003FB603B681B68FA681343FB607B686D
:102D7C001B68FA685A607B681B68144A934209D036
:102D8C007B681B68B3F1804F04D07B681B68104ACA
:102D9C0093420CD1BB6823F08003BB603B685B683B
:102DAC00BA681343BB607B681B68BA689A607B681F
:102DBC00012283F83D207B68002283F83C2000230D
:102DCC0018461437BD4680BC704700BF002C01402C
:102DDC000004004080B483B000AF786000BF0C37B3
:102DEC00BD4680BC704780B483B000AF786000BF34
:102DFC000C37BD4680BC704703460244934200D159
:102E0C00704703F8011BF9E770B500260C4D0D4C0B
:102E1C00641BA410A64209D100F01AF800260A4D32
:102E2C000A4C641BA410A64205D170BD55F8043B96
:102E3C0098470136EEE755F8043B98470136F2E720
:102E4C00982E0008982E0008982E00089C2E00083A
:102E5C00F8B500BFF8BC08BC9E467047F8B500BF7B
:082E6C00F8BC08BC9E4670474B
:102E74000000000000000000010203040607080926
:102E840002030405060708090A0B0C0D0E0F1010A7
:042E94000102000037
:042E980031010008FC
:042E9C000D0100081C
:102EA00000200040008000000010014000100140A0
:102EB00000100140050000000200000003000000B7
:102EC00001000000010000000024F40010000000D8
:042ED00001000000FD
:04000005080017C513
:00000001FF
